S01200004C6162364454313331412E737265635F
S11300000C9434000C9446000C9446000C94460066
S11300100C9446000C9446000C9446000C94460044
S11300200C9446000C9446000C9446000C94460034
S11300300C9446000C9446000C9446000C94460024
S11300400C9446000C9446000C9446000C94460014
S11300500C9446000C9448000C9446000C94460002
S11300600C9446000C94460011241FBECFEFD8E038
S1130070DEBFCDBF21E0A0E0B1E001C01D92A13000
S1130080B207E1F70E94AF000C947E020C940000CA
S11300901F920F920FB60F9211242F933F934F93F9
S11300A05F936F937F938F939F93AF93BF93EF93DC
S11300B0FF9380917900809300016091000170E0CA
S11300C080E090E00E945D0120E030E040EA5CE3E3
S11300D00E94E9019B01AC0160E070E080EA90E4D9
S11300E00E94B80020E030E040EA51E40E94E901B7
S11300F00E942501CB0164E670E00E9456026195DE
S113010067BDFF91EF91BF91AF919F918F917F91C7
S11301106F915F914F913F912F910F900FBE0F9070
S11301201F90189584B5806884BD84B5806484BDAF
S113013084B5816084BD84B5826084BD85B58460E6
S113014085BD089580E680937C008FE880937A00D3
S11301500895EAE7F0E08081806480830895569AE8
S11301600E9492000E94A20078940E94A900FDCFF0
S11301705058BB27AA270E94D0000C94AF010E94BC
S1130180A10138F00E94A80120F039F49F3F19F42E
S113019026F40C949E010EF4E095E7FB0C94980170
S11301A0E92F0E94C00158F3BA1762077307840746
S11301B0950720F079F4A6F50C94E2010EF4E0958D
S11301C00B2EBA2FA02D0B01B90190010C01CA010D
S11301D0A0011124FF27591B99F0593F50F4503EB8
S11301E068F11A16F040A22F232F342F4427585FAA
S11301F0F3CF469537952795A795F0405395C9F7C2
S11302007EF41F16BA0B620B730B840BBAF0915079
S1130210A1F0FF0FBB1F661F771F881FC2F70EC018
S1130220BA0F621F731F841F48F4879577956795EB
S1130230B795F7959E3F08F0B0CF9395880F08F0D7
S11302409927EE0F9795879508950E942C0168943D
S1130250B1110C94E30108950E94C80188F09F57DE
S113026098F0B92F9927B751B0F0E1F0660F771FD6
S1130270881F991F1AF0BA95C9F714C0B13091F0CC
S11302800E94E201B1E008950C94E201672F782FF7
S11302908827B85F39F0B93FCCF386957795679591
S11302A0B395D9F73EF490958095709561957F4FFD
S11302B08F4F9F4F0895E89409C097FB3EF49095A3
S11302C08095709561957F4F8F4F9F4F9923A9F02B
S11302D0F92F96E9BB279395F695879577956795BA
S11302E0B795F111F8CFFAF4BB0F11F460FF1BC0FE
S11302F06F5F7F4F8F4F9F4F16C0882311F096E991
S113030011C0772321F09EE8872F762F05C066233E
S113031071F096E8862F70E060E02AF09A95660FF7
S1130320771F881FDAF7880F9695879597F90895B0
S113033097F99F6780E870E060E008959FEF80EC94
S1130340089500240A941616170618060906089537
S113035000240A9412161306140605060895092E9D
S11303600394000C11F4882352F0BB0F40F4BF2B0C
S113037011F460FF04C06F5F7F4F8F4F9F4F08954C
S113038057FD9058440F551F59F05F3F71F0479542
S1130390880F97FB991F61F09F3F79F08795089527
S11303A0121613061406551FF2CF4695F1DF08C046
S11303B0161617061806991FF1CF86957105610563
S11303C008940895E894BB2766277727CB0197F90B
S11303D008950E94FC010C94AF010E94A10138F021
S11303E00E94A80120F0952311F00C9498010C941C
S11303F09E0111240C94E3010E94C00170F3959FA7
S1130400C1F3950F50E0551F629FF001729FBB2707
S1130410F00DB11D639FAA27F00DB11DAA1F649FA3
S11304206627B00DA11D661F829F2227B00DA11D56
S1130430621F739FB00DA11D621F839FA00D611DDC
S1130440221F749F3327A00D611D231F849F600DFD
S1130450211D822F762F6A2F11249F5750409AF026
S1130460F1F088234AF0EE0FFF1FBB1F661F771FB2
S1130470881F91505040A9F79E3F510580F00C947D
S113048098010C94E3015F3FE4F3983ED4F386951E
S113049077956795B795F795E7959F5FC1F7FE2B1D
S11304A0880F911D9695879597F9089597FB072EC8
S11304B016F4009407D077FD09D00E946A0207FC65
S11304C005D03EF4909581959F4F08957095619560
S11304D07F4F0895AA1BBB1B51E107C0AA1FBB1F76
S11304E0A617B70710F0A61BB70B881F991F5A95BC
S11304F0A9F780959095BC01CD010895F894FFCF9C
S9030000FC
