S01200004C6162364454313331412E737265635F
S11300000C9434000C9446000C9446000C94460066
S11300100C9446000C9446000C9446000C94460044
S11300200C9446000C9446000C9446000C94460034
S11300300C9446000C9446000C9446000C94460024
S11300400C9446000C9446000C9446000C94460014
S11300500C9446000C9448000C9446000C94460002
S11300600C9446000C94460011241FBECFEFD8E038
S1130070DEBFCDBF21E0A0E0B1E001C01D92A13000
S1130080B207E1F70E9467000C94B1000C940000E1
S11300901F920F920FB60F9211248F9380917900C3
S11300A0809300018F910F900FBE0F901F901895B1
S11300B080E680937C0089E880937A000895EAE7DB
S11300C0F0E0808180648083809100010895CF9363
S11300D08FEF84B90E9458007894CFEF0E945F009C
S11300E080910001853318F481E085B935C0809191
S11300F00001853338F080910001883618F484E0DB
S113010085B92AC080910001883638F080910001B9
S11301108B3918F480E185B91FC0809100018B39B7
S113012038F0809100018E3C18F480E285B914C047
S1130130809100018E3C28F08091000180E885B90F
S11301400BC0C5B92FE382E49FE02150804090406A
S1130150E1F700C00000C2CFF89480E090E0CF91B6
S10901600895F894FFCF9E
S9030000FC
